{
  "_format": "hh-sol-artifact-1",
  "contractName": "Ostake",
  "sourceName": "contracts/Ostake.sol",
  "abi": [
    {
      "inputs": [],
      "stateMutability": "nonpayable",
      "type": "constructor"
    },
    {
      "inputs": [
        {
          "internalType": "address",
          "name": "spender",
          "type": "address"
        },
        {
          "internalType": "uint256",
          "name": "allowance",
          "type": "uint256"
        },
        {
          "internalType": "uint256",
          "name": "needed",
          "type": "uint256"
        }
      ],
      "name": "ERC20InsufficientAllowance",
      "type": "error"
    },
    {
      "inputs": [
        {
          "internalType": "address",
          "name": "sender",
          "type": "address"
        },
        {
          "internalType": "uint256",
          "name": "balance",
          "type": "uint256"
        },
        {
          "internalType": "uint256",
          "name": "needed",
          "type": "uint256"
        }
      ],
      "name": "ERC20InsufficientBalance",
      "type": "error"
    },
    {
      "inputs": [
        {
          "internalType": "address",
          "name": "approver",
          "type": "address"
        }
      ],
      "name": "ERC20InvalidApprover",
      "type": "error"
    },
    {
      "inputs": [
        {
          "internalType": "address",
          "name": "receiver",
          "type": "address"
        }
      ],
      "name": "ERC20InvalidReceiver",
      "type": "error"
    },
    {
      "inputs": [
        {
          "internalType": "address",
          "name": "sender",
          "type": "address"
        }
      ],
      "name": "ERC20InvalidSender",
      "type": "error"
    },
    {
      "inputs": [
        {
          "internalType": "address",
          "name": "spender",
          "type": "address"
        }
      ],
      "name": "ERC20InvalidSpender",
      "type": "error"
    },
    {
      "anonymous": false,
      "inputs": [
        {
          "indexed": true,
          "internalType": "address",
          "name": "owner",
          "type": "address"
        },
        {
          "indexed": true,
          "internalType": "address",
          "name": "spender",
          "type": "address"
        },
        {
          "indexed": false,
          "internalType": "uint256",
          "name": "value",
          "type": "uint256"
        }
      ],
      "name": "Approval",
      "type": "event"
    },
    {
      "anonymous": false,
      "inputs": [
        {
          "indexed": true,
          "internalType": "address",
          "name": "from",
          "type": "address"
        },
        {
          "indexed": true,
          "internalType": "address",
          "name": "to",
          "type": "address"
        },
        {
          "indexed": false,
          "internalType": "uint256",
          "name": "value",
          "type": "uint256"
        }
      ],
      "name": "Transfer",
      "type": "event"
    },
    {
      "inputs": [
        {
          "internalType": "address",
          "name": "",
          "type": "address"
        }
      ],
      "name": "addressTime",
      "outputs": [
        {
          "internalType": "uint256",
          "name": "",
          "type": "uint256"
        }
      ],
      "stateMutability": "view",
      "type": "function"
    },
    {
      "inputs": [
        {
          "internalType": "address",
          "name": "owner",
          "type": "address"
        },
        {
          "internalType": "address",
          "name": "spender",
          "type": "address"
        }
      ],
      "name": "allowance",
      "outputs": [
        {
          "internalType": "uint256",
          "name": "",
          "type": "uint256"
        }
      ],
      "stateMutability": "view",
      "type": "function"
    },
    {
      "inputs": [
        {
          "internalType": "address",
          "name": "spender",
          "type": "address"
        },
        {
          "internalType": "uint256",
          "name": "value",
          "type": "uint256"
        }
      ],
      "name": "approve",
      "outputs": [
        {
          "internalType": "bool",
          "name": "",
          "type": "bool"
        }
      ],
      "stateMutability": "nonpayable",
      "type": "function"
    },
    {
      "inputs": [
        {
          "internalType": "address",
          "name": "account",
          "type": "address"
        }
      ],
      "name": "balanceOf",
      "outputs": [
        {
          "internalType": "uint256",
          "name": "",
          "type": "uint256"
        }
      ],
      "stateMutability": "view",
      "type": "function"
    },
    {
      "inputs": [],
      "name": "decimals",
      "outputs": [
        {
          "internalType": "uint8",
          "name": "",
          "type": "uint8"
        }
      ],
      "stateMutability": "view",
      "type": "function"
    },
    {
      "inputs": [],
      "name": "faucet",
      "outputs": [],
      "stateMutability": "nonpayable",
      "type": "function"
    },
    {
      "inputs": [],
      "name": "name",
      "outputs": [
        {
          "internalType": "string",
          "name": "",
          "type": "string"
        }
      ],
      "stateMutability": "view",
      "type": "function"
    },
    {
      "inputs": [],
      "name": "symbol",
      "outputs": [
        {
          "internalType": "string",
          "name": "",
          "type": "string"
        }
      ],
      "stateMutability": "view",
      "type": "function"
    },
    {
      "inputs": [],
      "name": "totalSupply",
      "outputs": [
        {
          "internalType": "uint256",
          "name": "",
          "type": "uint256"
        }
      ],
      "stateMutability": "view",
      "type": "function"
    },
    {
      "inputs": [
        {
          "internalType": "address",
          "name": "to",
          "type": "address"
        },
        {
          "internalType": "uint256",
          "name": "value",
          "type": "uint256"
        }
      ],
      "name": "transfer",
      "outputs": [
        {
          "internalType": "bool",
          "name": "",
          "type": "bool"
        }
      ],
      "stateMutability": "nonpayable",
      "type": "function"
    },
    {
      "inputs": [
        {
          "internalType": "address",
          "name": "from",
          "type": "address"
        },
        {
          "internalType": "address",
          "name": "to",
          "type": "address"
        },
        {
          "internalType": "uint256",
          "name": "value",
          "type": "uint256"
        }
      ],
      "name": "transferFrom",
      "outputs": [
        {
          "internalType": "bool",
          "name": "",
          "type": "bool"
        }
      ],
      "stateMutability": "nonpayable",
      "type": "function"
    }
  ],
  "bytecode": "0x60806040526801158e460913d000006005553480156200001e57600080fd5b506040518060400160405280600681526020017f4f5374616b6500000000000000000000000000000000000000000000000000008152506040518060400160405280600381526020017f4f5354000000000000000000000000000000000000000000000000000000000081525081600390816200009c919062000637565b508060049081620000ae919062000637565b505050620000f133620000c6620000f760201b60201c565b600a620000d49190620008ae565b6305f5e100620000e59190620008ff565b6200010060201b60201c565b62000a52565b60006012905090565b600073ffffffffffffffffffffffffffffffffffffffff168273ffffffffffffffffffffffffffffffffffffffff1603620001755760006040517fec442f050000000000000000000000000000000000000000000000000000000081526004016200016c91906200098f565b60405180910390fd5b62000189600083836200018d60201b60201c565b5050565b600073ffffffffffffffffffffffffffffffffffffffff168373ffffffffffffffffffffffffffffffffffffffff1603620001e3578060026000828254620001d69190620009ac565b92505081905550620002b9565b60008060008573ffffffffffffffffffffffffffffffffffffffff1673ffffffffffffffffffffffffffffffffffffffff1681526020019081526020016000205490508181101562000272578381836040517fe450d38c0000000000000000000000000000000000000000000000000000000081526004016200026993929190620009f8565b60405180910390fd5b8181036000808673ffffffffffffffffffffffffffffffffffffffff1673ffffffffffffffffffffffffffffffffffffffff16815260200190815260200160002081905550505b600073ffffffffffffffffffffffffffffffffffffffff168273ffffffffffffffffffffffffffffffffffffffff160362000304578060026000828254039250508190555062000351565b806000808473ffffffffffffffffffffffffffffffffffffffff1673ffffffffffffffffffffffffffffffffffffffff168152602001908152602001600020600082825401925050819055505b8173ffffffffffffffffffffffffffffffffffffffff168373ffffffffffffffffffffffffffffffffffffffff167fddf252ad1be2c89b69c2b068fc378daa952ba7f163c4a11628f55a4df523b3ef83604051620003b0919062000a35565b60405180910390a3505050565b600081519050919050565b7f4e487b7100000000000000000000000000000000000000000000000000000000600052604160045260246000fd5b7f4e487b7100000000000000000000000000000000000000000000000000000000600052602260045260246000fd5b600060028204905060018216806200043f57607f821691505b602082108103620004555762000454620003f7565b5b50919050565b60008190508160005260206000209050919050565b60006020601f8301049050919050565b600082821b905092915050565b600060088302620004bf7fffffffffffffffffffffffffffffffffffffffffffffffffffffffffffffffff8262000480565b620004cb868362000480565b95508019841693508086168417925050509392505050565b6000819050919050565b6000819050919050565b600062000518620005126200050c84620004e3565b620004ed565b620004e3565b9050919050565b6000819050919050565b6200053483620004f7565b6200054c62000543826200051f565b8484546200048d565b825550505050565b600090565b6200056362000554565b6200057081848462000529565b505050565b5b8181101562000598576200058c60008262000559565b60018101905062000576565b5050565b601f821115620005e757620005b1816200045b565b620005bc8462000470565b81016020851015620005cc578190505b620005e4620005db8562000470565b83018262000575565b50505b505050565b600082821c905092915050565b60006200060c60001984600802620005ec565b1980831691505092915050565b6000620006278383620005f9565b9150826002028217905092915050565b6200064282620003bd565b67ffffffffffffffff8111156200065e576200065d620003c8565b5b6200066a825462000426565b620006778282856200059c565b600060209050601f831160018114620006af57600084156200069a578287015190505b620006a6858262000619565b86555062000716565b601f198416620006bf866200045b565b60005b82811015620006e957848901518255600182019150602085019450602081019050620006c2565b8683101562000709578489015162000705601f891682620005f9565b8355505b6001600288020188555050505b505050505050565b7f4e487b7100000000000000000000000000000000000000000000000000000000600052601160045260246000fd5b60008160011c9050919050565b6000808291508390505b6001851115620007ac578086048111156200078457620007836200071e565b5b6001851615620007945780820291505b8081029050620007a4856200074d565b945062000764565b94509492505050565b600082620007c757600190506200089a565b81620007d757600090506200089a565b8160018114620007f05760028114620007fb5762000831565b60019150506200089a565b60ff84111562000810576200080f6200071e565b5b8360020a9150848211156200082a57620008296200071e565b5b506200089a565b5060208310610133831016604e8410600b84101617156200086b5782820a9050838111156200086557620008646200071e565b5b6200089a565b6200087a84848460016200075a565b925090508184048111156200089457620008936200071e565b5b81810290505b9392505050565b600060ff82169050919050565b6000620008bb82620004e3565b9150620008c883620008a1565b9250620008f77fffffffffffffffffffffffffffffffffffffffffffffffffffffffffffffffff8484620007b5565b905092915050565b60006200090c82620004e3565b91506200091983620004e3565b92508282026200092981620004e3565b915082820484148315176200094357620009426200071e565b5b5092915050565b600073ffffffffffffffffffffffffffffffffffffffff82169050919050565b600062000977826200094a565b9050919050565b62000989816200096a565b82525050565b6000602082019050620009a660008301846200097e565b92915050565b6000620009b982620004e3565b9150620009c683620004e3565b9250828201905080821115620009e157620009e06200071e565b5b92915050565b620009f281620004e3565b82525050565b600060608201905062000a0f60008301866200097e565b62000a1e6020830185620009e7565b62000a2d6040830184620009e7565b949350505050565b600060208201905062000a4c6000830184620009e7565b92915050565b61108b8062000a626000396000f3fe608060405234801561001057600080fd5b50600436106100a95760003560e01c806370a082311161007157806370a082311461016857806395d89b4114610198578063a9059cbb146101b6578063dd62ed3e146101e6578063de5f72fd14610216578063f179b66d14610220576100a9565b806306fdde03146100ae578063095ea7b3146100cc57806318160ddd146100fc57806323b872dd1461011a578063313ce5671461014a575b600080fd5b6100b6610250565b6040516100c39190610c73565b60405180910390f35b6100e660048036038101906100e19190610d2e565b6102e2565b6040516100f39190610d89565b60405180910390f35b610104610305565b6040516101119190610db3565b60405180910390f35b610134600480360381019061012f9190610dce565b61030f565b6040516101419190610d89565b60405180910390f35b61015261033e565b60405161015f9190610e3d565b60405180910390f35b610182600480360381019061017d9190610e58565b610347565b60405161018f9190610db3565b60405180910390f35b6101a061038f565b6040516101ad9190610c73565b60405180910390f35b6101d060048036038101906101cb9190610d2e565b610421565b6040516101dd9190610d89565b60405180910390f35b61020060048036038101906101fb9190610e85565b610444565b60405161020d9190610db3565b60405180910390f35b61021e6104cb565b005b61023a60048036038101906102359190610e58565b6105ab565b6040516102479190610db3565b60405180910390f35b60606003805461025f90610ef4565b80601f016020809104026020016040519081016040528092919081815260200182805461028b90610ef4565b80156102d85780601f106102ad576101008083540402835291602001916102d8565b820191906000526020600020905b8154815290600101906020018083116102bb57829003601f168201915b5050505050905090565b6000806102ed6105c3565b90506102fa8185856105cb565b600191505092915050565b6000600254905090565b60008061031a6105c3565b90506103278582856105dd565b610332858585610671565b60019150509392505050565b60006012905090565b60008060008373ffffffffffffffffffffffffffffffffffffffff1673ffffffffffffffffffffffffffffffffffffffff168152602001908152602001600020549050919050565b60606004805461039e90610ef4565b80601f01602080910402602001604051908101604052809291908181526020018280546103ca90610ef4565b80156104175780601f106103ec57610100808354040283529160200191610417565b820191906000526020600020905b8154815290600101906020018083116103fa57829003601f168201915b5050505050905090565b60008061042c6105c3565b9050610439818585610671565b600191505092915050565b6000600160008473ffffffffffffffffffffffffffffffffffffffff1673ffffffffffffffffffffffffffffffffffffffff16815260200190815260200160002060008373ffffffffffffffffffffffffffffffffffffffff1673ffffffffffffffffffffffffffffffffffffffff16815260200190815260200160002054905092915050565b42600660003373ffffffffffffffffffffffffffffffffffffffff1673ffffffffffffffffffffffffffffffffffffffff168152602001908152602001600020541061054c576040517f08c379a000000000000000000000000000000000000000000000000000000000815260040161054390610f71565b60405180910390fd5b61055833600554610765565b610e10426105669190610fc0565b600660003373ffffffffffffffffffffffffffffffffffffffff1673ffffffffffffffffffffffffffffffffffffffff16815260200190815260200160002081905550565b60066020528060005260406000206000915090505481565b600033905090565b6105d883838360016107e7565b505050565b60006105e98484610444565b90507fffffffffffffffffffffffffffffffffffffffffffffffffffffffffffffffff811461066b578181101561065b578281836040517ffb8f41b200000000000000000000000000000000000000000000000000000000815260040161065293929190611003565b60405180910390fd5b61066a848484840360006107e7565b5b50505050565b600073ffffffffffffffffffffffffffffffffffffffff168373ffffffffffffffffffffffffffffffffffffffff16036106e35760006040517f96c6fd1e0000000000000000000000000000000000000000000000000000000081526004016106da919061103a565b60405180910390fd5b600073ffffffffffffffffffffffffffffffffffffffff168273ffffffffffffffffffffffffffffffffffffffff16036107555760006040517fec442f0500000000000000000000000000000000000000000000000000000000815260040161074c919061103a565b60405180910390fd5b6107608383836109be565b505050565b600073ffffffffffffffffffffffffffffffffffffffff168273ffffffffffffffffffffffffffffffffffffffff16036107d75760006040517fec442f050000000000000000000000000000000000000000000000000000000081526004016107ce919061103a565b60405180910390fd5b6107e3600083836109be565b5050565b600073ffffffffffffffffffffffffffffffffffffffff168473ffffffffffffffffffffffffffffffffffffffff16036108595760006040517fe602df05000000000000000000000000000000000000000000000000000000008152600401610850919061103a565b60405180910390fd5b600073ffffffffffffffffffffffffffffffffffffffff168373ffffffffffffffffffffffffffffffffffffffff16036108cb5760006040517f94280d620000000000000000000000000000000000000000000000000000000081526004016108c2919061103a565b60405180910390fd5b81600160008673ffffffffffffffffffffffffffffffffffffffff1673ffffffffffffffffffffffffffffffffffffffff16815260200190815260200160002060008573ffffffffffffffffffffffffffffffffffffffff1673ffffffffffffffffffffffffffffffffffffffff1681526020019081526020016000208190555080156109b8578273ffffffffffffffffffffffffffffffffffffffff168473ffffffffffffffffffffffffffffffffffffffff167f8c5be1e5ebec7d5bd14f71427d1e84f3dd0314c0f7b2291e5b200ac8c7c3b925846040516109af9190610db3565b60405180910390a35b50505050565b600073ffffffffffffffffffffffffffffffffffffffff168373ffffffffffffffffffffffffffffffffffffffff1603610a10578060026000828254610a049190610fc0565b92505081905550610ae3565b60008060008573ffffffffffffffffffffffffffffffffffffffff1673ffffffffffffffffffffffffffffffffffffffff16815260200190815260200160002054905081811015610a9c578381836040517fe450d38c000000000000000000000000000000000000000000000000000000008152600401610a9393929190611003565b60405180910390fd5b8181036000808673ffffffffffffffffffffffffffffffffffffffff1673ffffffffffffffffffffffffffffffffffffffff16815260200190815260200160002081905550505b600073ffffffffffffffffffffffffffffffffffffffff168273ffffffffffffffffffffffffffffffffffffffff1603610b2c5780600260008282540392505081905550610b79565b806000808473ffffffffffffffffffffffffffffffffffffffff1673ffffffffffffffffffffffffffffffffffffffff168152602001908152602001600020600082825401925050819055505b8173ffffffffffffffffffffffffffffffffffffffff168373ffffffffffffffffffffffffffffffffffffffff167fddf252ad1be2c89b69c2b068fc378daa952ba7f163c4a11628f55a4df523b3ef83604051610bd69190610db3565b60405180910390a3505050565b600081519050919050565b600082825260208201905092915050565b60005b83811015610c1d578082015181840152602081019050610c02565b60008484015250505050565b6000601f19601f8301169050919050565b6000610c4582610be3565b610c4f8185610bee565b9350610c5f818560208601610bff565b610c6881610c29565b840191505092915050565b60006020820190508181036000830152610c8d8184610c3a565b905092915050565b600080fd5b600073ffffffffffffffffffffffffffffffffffffffff82169050919050565b6000610cc582610c9a565b9050919050565b610cd581610cba565b8114610ce057600080fd5b50565b600081359050610cf281610ccc565b92915050565b6000819050919050565b610d0b81610cf8565b8114610d1657600080fd5b50565b600081359050610d2881610d02565b92915050565b60008060408385031215610d4557610d44610c95565b5b6000610d5385828601610ce3565b9250506020610d6485828601610d19565b9150509250929050565b60008115159050919050565b610d8381610d6e565b82525050565b6000602082019050610d9e6000830184610d7a565b92915050565b610dad81610cf8565b82525050565b6000602082019050610dc86000830184610da4565b92915050565b600080600060608486031215610de757610de6610c95565b5b6000610df586828701610ce3565b9350506020610e0686828701610ce3565b9250506040610e1786828701610d19565b9150509250925092565b600060ff82169050919050565b610e3781610e21565b82525050565b6000602082019050610e526000830184610e2e565b92915050565b600060208284031215610e6e57610e6d610c95565b5b6000610e7c84828501610ce3565b91505092915050565b60008060408385031215610e9c57610e9b610c95565b5b6000610eaa85828601610ce3565b9250506020610ebb85828601610ce3565b9150509250929050565b7f4e487b7100000000000000000000000000000000000000000000000000000000600052602260045260246000fd5b60006002820490506001821680610f0c57607f821691505b602082108103610f1f57610f1e610ec5565b5b50919050565b7f6e65656420746f2077616974206d6f72652074696d6500000000000000000000600082015250565b6000610f5b601683610bee565b9150610f6682610f25565b602082019050919050565b60006020820190508181036000830152610f8a81610f4e565b9050919050565b7f4e487b7100000000000000000000000000000000000000000000000000000000600052601160045260246000fd5b6000610fcb82610cf8565b9150610fd683610cf8565b9250828201905080821115610fee57610fed610f91565b5b92915050565b610ffd81610cba565b82525050565b60006060820190506110186000830186610ff4565b6110256020830185610da4565b6110326040830184610da4565b949350505050565b600060208201905061104f6000830184610ff4565b9291505056fea2646970667358221220eb4bcb4fc9cfadc105098b2520cddd84df7978fb2821497ecdf1f3ed61d5587a64736f6c63430008180033",
  "linkReferences": {},
  "deployedLinkReferences": {}
}