{
  "_format": "hh-sol-artifact-1",
  "contractName": "StakingContract",
  "sourceName": "contracts/StakingContract.sol",
  "abi": [
    {
      "inputs": [
        {
          "internalType": "contract IERC20",
          "name": "token_",
          "type": "address"
        }
      ],
      "stateMutability": "nonpayable",
      "type": "constructor"
    },
    {
      "inputs": [
        {
          "internalType": "address",
          "name": "target",
          "type": "address"
        }
      ],
      "name": "AddressEmptyCode",
      "type": "error"
    },
    {
      "inputs": [
        {
          "internalType": "address",
          "name": "account",
          "type": "address"
        }
      ],
      "name": "AddressInsufficientBalance",
      "type": "error"
    },
    {
      "inputs": [],
      "name": "FailedInnerCall",
      "type": "error"
    },
    {
      "inputs": [
        {
          "internalType": "address",
          "name": "token",
          "type": "address"
        }
      ],
      "name": "SafeERC20FailedOperation",
      "type": "error"
    },
    {
      "anonymous": false,
      "inputs": [
        {
          "indexed": true,
          "internalType": "address",
          "name": "_address",
          "type": "address"
        },
        {
          "indexed": false,
          "internalType": "uint256",
          "name": "_amount",
          "type": "uint256"
        }
      ],
      "name": "RewardsClaimed",
      "type": "event"
    },
    {
      "anonymous": false,
      "inputs": [
        {
          "indexed": true,
          "internalType": "address",
          "name": "_address",
          "type": "address"
        },
        {
          "indexed": false,
          "internalType": "uint256",
          "name": "_amount",
          "type": "uint256"
        }
      ],
      "name": "Stake",
      "type": "event"
    },
    {
      "anonymous": false,
      "inputs": [
        {
          "indexed": true,
          "internalType": "address",
          "name": "_address",
          "type": "address"
        },
        {
          "indexed": false,
          "internalType": "uint256",
          "name": "_amount",
          "type": "uint256"
        }
      ],
      "name": "Unstake",
      "type": "event"
    },
    {
      "inputs": [
        {
          "internalType": "address",
          "name": "",
          "type": "address"
        }
      ],
      "name": "balanceOf",
      "outputs": [
        {
          "internalType": "uint256",
          "name": "",
          "type": "uint256"
        }
      ],
      "stateMutability": "view",
      "type": "function"
    },
    {
      "inputs": [],
      "name": "calculateAccuredReward",
      "outputs": [],
      "stateMutability": "nonpayable",
      "type": "function"
    },
    {
      "inputs": [],
      "name": "claimRewards",
      "outputs": [],
      "stateMutability": "nonpayable",
      "type": "function"
    },
    {
      "inputs": [],
      "name": "getBalanceStaked",
      "outputs": [
        {
          "internalType": "uint256",
          "name": "",
          "type": "uint256"
        }
      ],
      "stateMutability": "view",
      "type": "function"
    },
    {
      "inputs": [],
      "name": "getRewards",
      "outputs": [
        {
          "internalType": "uint256",
          "name": "",
          "type": "uint256"
        }
      ],
      "stateMutability": "view",
      "type": "function"
    },
    {
      "inputs": [
        {
          "internalType": "address",
          "name": "",
          "type": "address"
        }
      ],
      "name": "positions",
      "outputs": [
        {
          "internalType": "uint256",
          "name": "stakedAmount",
          "type": "uint256"
        },
        {
          "internalType": "uint256",
          "name": "stakedTime",
          "type": "uint256"
        },
        {
          "internalType": "uint256",
          "name": "totalRewards",
          "type": "uint256"
        }
      ],
      "stateMutability": "view",
      "type": "function"
    },
    {
      "inputs": [],
      "name": "rewardRate",
      "outputs": [
        {
          "internalType": "uint256",
          "name": "",
          "type": "uint256"
        }
      ],
      "stateMutability": "view",
      "type": "function"
    },
    {
      "inputs": [
        {
          "internalType": "address",
          "name": "",
          "type": "address"
        }
      ],
      "name": "rewards",
      "outputs": [
        {
          "internalType": "uint256",
          "name": "",
          "type": "uint256"
        }
      ],
      "stateMutability": "view",
      "type": "function"
    },
    {
      "inputs": [
        {
          "internalType": "uint256",
          "name": "_amount",
          "type": "uint256"
        }
      ],
      "name": "stake",
      "outputs": [],
      "stateMutability": "nonpayable",
      "type": "function"
    },
    {
      "inputs": [],
      "name": "token",
      "outputs": [
        {
          "internalType": "contract IERC20",
          "name": "",
          "type": "address"
        }
      ],
      "stateMutability": "view",
      "type": "function"
    },
    {
      "inputs": [],
      "name": "totalStaked",
      "outputs": [
        {
          "internalType": "uint256",
          "name": "",
          "type": "uint256"
        }
      ],
      "stateMutability": "view",
      "type": "function"
    },
    {
      "inputs": [],
      "name": "trf",
      "outputs": [],
      "stateMutability": "nonpayable",
      "type": "function"
    },
    {
      "inputs": [
        {
          "internalType": "uint256",
          "name": "_amount",
          "type": "uint256"
        }
      ],
      "name": "unstake",
      "outputs": [],
      "stateMutability": "nonpayable",
      "type": "function"
    }
  ],
  "bytecode": "0x60c0604052650a8cd5e1200060a09081525060006001553480156200002357600080fd5b5060405162001d9738038062001d97833981810160405281019062000049919062000143565b8073ffffffffffffffffffffffffffffffffffffffff1660808173ffffffffffffffffffffffffffffffffffffffff168152505033600460006101000a81548173ffffffffffffffffffffffffffffffffffffffff021916908373ffffffffffffffffffffffffffffffffffffffff1602179055505062000175565b600080fd5b600073ffffffffffffffffffffffffffffffffffffffff82169050919050565b6000620000f782620000ca565b9050919050565b60006200010b82620000ea565b9050919050565b6200011d81620000fe565b81146200012957600080fd5b50565b6000815190506200013d8162000112565b92915050565b6000602082840312156200015c576200015b620000c5565b5b60006200016c848285016200012c565b91505092915050565b60805160a051611bc4620001d3600039600081816109c60152610b3a0152600081816104240152818161073201528181610b6501528181610c8201528181610d2701528181610f6901528181610f8d01526110480152611bc46000f3fe608060405234801561001057600080fd5b50600436106100cf5760003560e01c8063421b68521161008c5780637b0a47ee116100665780637b0a47ee146101dc578063817b1cd2146101fa578063a694fc3a14610218578063fc0c546a14610234576100cf565b8063421b68521461017057806355f575101461017a57806370a08231146101ac576100cf565b80630572b0cc146100d45780630585ab95146100f25780630700037d146100fc5780632e17de781461012c57806336afee1414610148578063372500ab14610166575b600080fd5b6100dc610252565b6040516100e99190611378565b60405180910390f35b6100fa610299565b005b610116600480360381019061011191906113f6565b6102fd565b6040516101239190611378565b60405180910390f35b6101466004803603810190610141919061144f565b610315565b005b6101506105d9565b60405161015d9190611378565b60405180910390f35b61016e610620565b005b61017861092d565b005b610194600480360381019061018f91906113f6565b610af6565b6040516101a39392919061147c565b60405180910390f35b6101c660048036038101906101c191906113f6565b610b20565b6040516101d39190611378565b60405180910390f35b6101e4610b38565b6040516101f19190611378565b60405180910390f35b610202610b5c565b60405161020f9190611378565b60405180910390f35b610232600480360381019061022d919061144f565b610b62565b005b61023c610f67565b6040516102499190611512565b60405180910390f35b6000600260003373ffffffffffffffffffffffffffffffffffffffff1673ffffffffffffffffffffffffffffffffffffffff16815260200190815260200160002054905090565b3373ffffffffffffffffffffffffffffffffffffffff16600460009054906101000a900473ffffffffffffffffffffffffffffffffffffffff1673ffffffffffffffffffffffffffffffffffffffff16146102f357600080fd5b6102fb610f8b565b565b60026020528060005260406000206000915090505481565b60008060003373ffffffffffffffffffffffffffffffffffffffff1673ffffffffffffffffffffffffffffffffffffffff1681526020019081526020016000206000015411610399576040517f08c379a0000000000000000000000000000000000000000000000000000000008152600401610390906115b0565b60405180910390fd5b80600360003373ffffffffffffffffffffffffffffffffffffffff1673ffffffffffffffffffffffffffffffffffffffff168152602001908152602001600020541161041a576040517f08c379a000000000000000000000000000000000000000000000000000000000815260040161041190611642565b60405180910390fd5b61042261092d565b7f000000000000000000000000000000000000000000000000000000000000000073ffffffffffffffffffffffffffffffffffffffff1663a9059cbb33836040518363ffffffff1660e01b815260040161047d929190611671565b6020604051808303816000875af115801561049c573d6000803e3d6000fd5b505050506040513d601f19601f820116820180604052508101906104c091906116d2565b503373ffffffffffffffffffffffffffffffffffffffff167f85082129d87b2fe11527cb1b3b7a520aeb5aa6913f88a3d8757fe40d1db02fdd826040516105079190611378565b60405180910390a280600360003373ffffffffffffffffffffffffffffffffffffffff1673ffffffffffffffffffffffffffffffffffffffff168152602001908152602001600020600082825461055e919061172e565b92505081905550806000803373ffffffffffffffffffffffffffffffffffffffff1673ffffffffffffffffffffffffffffffffffffffff16815260200190815260200160002060000160008282546105b6919061172e565b9250508190555080600160008282546105cf919061172e565b9250508190555050565b6000600360003373ffffffffffffffffffffffffffffffffffffffff1673ffffffffffffffffffffffffffffffffffffffff16815260200190815260200160002054905090565b60008060003373ffffffffffffffffffffffffffffffffffffffff1673ffffffffffffffffffffffffffffffffffffffff16815260200190815260200160002060000154116106a4576040517f08c379a000000000000000000000000000000000000000000000000000000000815260040161069b906117ae565b60405180910390fd5b6106ac61092d565b60016000803373ffffffffffffffffffffffffffffffffffffffff1673ffffffffffffffffffffffffffffffffffffffff1681526020019081526020016000206002015411610730576040517f08c379a00000000000000000000000000000000000000000000000000000000081526004016107279061181a565b60405180910390fd5b7f000000000000000000000000000000000000000000000000000000000000000073ffffffffffffffffffffffffffffffffffffffff1663a9059cbb336000803373ffffffffffffffffffffffffffffffffffffffff1673ffffffffffffffffffffffffffffffffffffffff168152602001908152602001600020600201546040518363ffffffff1660e01b81526004016107cc929190611671565b6020604051808303816000875af11580156107eb573d6000803e3d6000fd5b505050506040513d601f19601f8201168201806040525081019061080f91906116d2565b503373ffffffffffffffffffffffffffffffffffffffff167ffc30cddea38e2bf4d6ea7d3f9ed3b6ad7f176419f4963bd81318067a4aee73fe6000803373ffffffffffffffffffffffffffffffffffffffff1673ffffffffffffffffffffffffffffffffffffffff168152602001908152602001600020600201546040516108979190611378565b60405180910390a260008060003373ffffffffffffffffffffffffffffffffffffffff1673ffffffffffffffffffffffffffffffffffffffff168152602001908152602001600020600201819055506000600260003373ffffffffffffffffffffffffffffffffffffffff1673ffffffffffffffffffffffffffffffffffffffff16815260200190815260200160002081905550565b60008060003373ffffffffffffffffffffffffffffffffffffffff1673ffffffffffffffffffffffffffffffffffffffff168152602001908152602001600020600101544261097c919061172e565b9050600060015482600360003373ffffffffffffffffffffffffffffffffffffffff1673ffffffffffffffffffffffffffffffffffffffff168152602001908152602001600020547f00000000000000000000000000000000000000000000000000000000000000006109ef919061183a565b6109f9919061183a565b610a0391906118ab565b905080600260003373ffffffffffffffffffffffffffffffffffffffff1673ffffffffffffffffffffffffffffffffffffffff1681526020019081526020016000206000828254610a5491906118dc565b92505081905550600260003373ffffffffffffffffffffffffffffffffffffffff1673ffffffffffffffffffffffffffffffffffffffff168152602001908152602001600020546000803373ffffffffffffffffffffffffffffffffffffffff1673ffffffffffffffffffffffffffffffffffffffff1681526020019081526020016000206002016000828254610aeb91906118dc565b925050819055505050565b60006020528060005260406000206000915090508060000154908060010154908060020154905083565b60036020528060005260406000206000915090505481565b7f000000000000000000000000000000000000000000000000000000000000000081565b60015481565b807f000000000000000000000000000000000000000000000000000000000000000073ffffffffffffffffffffffffffffffffffffffff166370a08231336040518263ffffffff1660e01b8152600401610bbc9190611910565b602060405180830381865afa158015610bd9573d6000803e3d6000fd5b505050506040513d601f19601f82011682018060405250810190610bfd9190611940565b11610c3d576040517f08c379a0000000000000000000000000000000000000000000000000000000008152600401610c34906119b9565b60405180910390fd5b60008111610c80576040517f08c379a0000000000000000000000000000000000000000000000000000000008152600401610c7790611a4b565b60405180910390fd5b7f000000000000000000000000000000000000000000000000000000000000000073ffffffffffffffffffffffffffffffffffffffff1663095ea7b330836040518363ffffffff1660e01b8152600401610cdb929190611671565b6020604051808303816000875af1158015610cfa573d6000803e3d6000fd5b505050506040513d601f19601f82011682018060405250810190610d1e91906116d2565b50610d6c3330837f000000000000000000000000000000000000000000000000000000000000000073ffffffffffffffffffffffffffffffffffffffff1661108f909392919063ffffffff16565b8060016000828254610d7e91906118dc565b9250508190555080600360003373ffffffffffffffffffffffffffffffffffffffff1673ffffffffffffffffffffffffffffffffffffffff1681526020019081526020016000206000828254610dd491906118dc565b9250508190555060008060003373ffffffffffffffffffffffffffffffffffffffff1673ffffffffffffffffffffffffffffffffffffffff1681526020019081526020016000206000015403610eb557806000803373ffffffffffffffffffffffffffffffffffffffff1673ffffffffffffffffffffffffffffffffffffffff16815260200190815260200160002060000181905550426000803373ffffffffffffffffffffffffffffffffffffffff1673ffffffffffffffffffffffffffffffffffffffff16815260200190815260200160002060010181905550610f0e565b806000803373ffffffffffffffffffffffffffffffffffffffff1673ffffffffffffffffffffffffffffffffffffffff1681526020019081526020016000206000016000828254610f0691906118dc565b925050819055505b610f1661092d565b3373ffffffffffffffffffffffffffffffffffffffff167febedb8b3c678666e7f36970bc8f57abf6d8fa2e828c0da91ea5b75bf68ed101a82604051610f5c9190611378565b60405180910390a250565b7f000000000000000000000000000000000000000000000000000000000000000081565b7f000000000000000000000000000000000000000000000000000000000000000073ffffffffffffffffffffffffffffffffffffffff1663095ea7b3306a295be96e640669720000006040518363ffffffff1660e01b8152600401610ff1929190611aa6565b6020604051808303816000875af1158015611010573d6000803e3d6000fd5b505050506040513d601f19601f8201168201806040525081019061103491906116d2565b5061108d33306a295be96e640669720000007f000000000000000000000000000000000000000000000000000000000000000073ffffffffffffffffffffffffffffffffffffffff1661108f909392919063ffffffff16565b565b61110b848573ffffffffffffffffffffffffffffffffffffffff166323b872dd8686866040516024016110c493929190611acf565b604051602081830303815290604052915060e01b6020820180517bffffffffffffffffffffffffffffffffffffffffffffffffffffffff8381831617835250505050611111565b50505050565b600061113c828473ffffffffffffffffffffffffffffffffffffffff166111a890919063ffffffff16565b9050600081511415801561116157508080602001905181019061115f91906116d2565b155b156111a357826040517f5274afe700000000000000000000000000000000000000000000000000000000815260040161119a9190611910565b60405180910390fd5b505050565b60606111b6838360006111be565b905092915050565b60608147101561120557306040517fcd7860590000000000000000000000000000000000000000000000000000000081526004016111fc9190611910565b60405180910390fd5b6000808573ffffffffffffffffffffffffffffffffffffffff16848660405161122e9190611b77565b60006040518083038185875af1925050503d806000811461126b576040519150601f19603f3d011682016040523d82523d6000602084013e611270565b606091505b509150915061128086838361128b565b925050509392505050565b6060826112a05761129b8261131a565b611312565b600082511480156112c8575060008473ffffffffffffffffffffffffffffffffffffffff163b145b1561130a57836040517f9996b3150000000000000000000000000000000000000000000000000000000081526004016113019190611910565b60405180910390fd5b819050611313565b5b9392505050565b60008151111561132d5780518082602001fd5b6040517f1425ea4200000000000000000000000000000000000000000000000000000000815260040160405180910390fd5b6000819050919050565b6113728161135f565b82525050565b600060208201905061138d6000830184611369565b92915050565b600080fd5b600073ffffffffffffffffffffffffffffffffffffffff82169050919050565b60006113c382611398565b9050919050565b6113d3816113b8565b81146113de57600080fd5b50565b6000813590506113f0816113ca565b92915050565b60006020828403121561140c5761140b611393565b5b600061141a848285016113e1565b91505092915050565b61142c8161135f565b811461143757600080fd5b50565b60008135905061144981611423565b92915050565b60006020828403121561146557611464611393565b5b60006114738482850161143a565b91505092915050565b60006060820190506114916000830186611369565b61149e6020830185611369565b6114ab6040830184611369565b949350505050565b6000819050919050565b60006114d86114d36114ce84611398565b6114b3565b611398565b9050919050565b60006114ea826114bd565b9050919050565b60006114fc826114df565b9050919050565b61150c816114f1565b82525050565b60006020820190506115276000830184611503565b92915050565b600082825260208201905092915050565b7f596f75206d757374207374616b65206669727374206265666f726520796f752060008201527f63616e20756e7374616b65000000000000000000000000000000000000000000602082015250565b600061159a602b8361152d565b91506115a58261153e565b604082019050919050565b600060208201905081810360008301526115c98161158d565b9050919050565b7f7468697320616d6f756e74206973206d6f7265207468616e207468652073746160008201527f6b656420616d6f6a6e7400000000000000000000000000000000000000000000602082015250565b600061162c602a8361152d565b9150611637826115d0565b604082019050919050565b6000602082019050818103600083015261165b8161161f565b9050919050565b61166b816113b8565b82525050565b60006040820190506116866000830185611662565b6116936020830184611369565b9392505050565b60008115159050919050565b6116af8161169a565b81146116ba57600080fd5b50565b6000815190506116cc816116a6565b92915050565b6000602082840312156116e8576116e7611393565b5b60006116f6848285016116bd565b91505092915050565b7f4e487b7100000000000000000000000000000000000000000000000000000000600052601160045260246000fd5b60006117398261135f565b91506117448361135f565b925082820390508181111561175c5761175b6116ff565b5b92915050565b7f596f7520617265206e6f742061205374616b6572000000000000000000000000600082015250565b600061179860148361152d565b91506117a382611762565b602082019050919050565b600060208201905081810360008301526117c78161178b565b9050919050565b7f4d696e696d756d20746f20436c61696d2069732031204f535420746f6b656e73600082015250565b600061180460208361152d565b915061180f826117ce565b602082019050919050565b60006020820190508181036000830152611833816117f7565b9050919050565b60006118458261135f565b91506118508361135f565b925082820261185e8161135f565b91508282048414831517611875576118746116ff565b5b5092915050565b7f4e487b7100000000000000000000000000000000000000000000000000000000600052601260045260246000fd5b60006118b68261135f565b91506118c18361135f565b9250826118d1576118d061187c565b5b828204905092915050565b60006118e78261135f565b91506118f28361135f565b925082820190508082111561190a576119096116ff565b5b92915050565b60006020820190506119256000830184611662565b92915050565b60008151905061193a81611423565b92915050565b60006020828403121561195657611955611393565b5b60006119648482850161192b565b91505092915050565b7f496e73756666696369656e742066756e64730000000000000000000000000000600082015250565b60006119a360128361152d565b91506119ae8261196d565b602082019050919050565b600060208201905081810360008301526119d281611996565b9050919050565b7f5374616b696e6720416d6f756e74206d7573742062652067726561746572207460008201527f68616e205a65726f283029000000000000000000000000000000000000000000602082015250565b6000611a35602b8361152d565b9150611a40826119d9565b604082019050919050565b60006020820190508181036000830152611a6481611a28565b9050919050565b6000819050919050565b6000611a90611a8b611a8684611a6b565b6114b3565b61135f565b9050919050565b611aa081611a75565b82525050565b6000604082019050611abb6000830185611662565b611ac86020830184611a97565b9392505050565b6000606082019050611ae46000830186611662565b611af16020830185611662565b611afe6040830184611369565b949350505050565b600081519050919050565b600081905092915050565b60005b83811015611b3a578082015181840152602081019050611b1f565b60008484015250505050565b6000611b5182611b06565b611b5b8185611b11565b9350611b6b818560208601611b1c565b80840191505092915050565b6000611b838284611b46565b91508190509291505056fea2646970667358221220356cb1f3d4612f942914aa606da74234e8f44b7e1d56884063fc2857a09a1ac564736f6c63430008180033",
  "linkReferences": {},
  "deployedLinkReferences": {}
}