{
  "_format": "hh-sol-artifact-1",
  "contractName": "StakingContract",
  "sourceName": "contracts/StakingContract.sol",
  "abi": [
    {
      "inputs": [
        {
          "internalType": "contract IERC20",
          "name": "token_",
          "type": "address"
        }
      ],
      "stateMutability": "nonpayable",
      "type": "constructor"
    },
    {
      "inputs": [
        {
          "internalType": "address",
          "name": "target",
          "type": "address"
        }
      ],
      "name": "AddressEmptyCode",
      "type": "error"
    },
    {
      "inputs": [
        {
          "internalType": "address",
          "name": "account",
          "type": "address"
        }
      ],
      "name": "AddressInsufficientBalance",
      "type": "error"
    },
    {
      "inputs": [],
      "name": "FailedInnerCall",
      "type": "error"
    },
    {
      "inputs": [
        {
          "internalType": "address",
          "name": "token",
          "type": "address"
        }
      ],
      "name": "SafeERC20FailedOperation",
      "type": "error"
    },
    {
      "anonymous": false,
      "inputs": [
        {
          "indexed": true,
          "internalType": "address",
          "name": "_address",
          "type": "address"
        },
        {
          "indexed": false,
          "internalType": "uint256",
          "name": "_amount",
          "type": "uint256"
        }
      ],
      "name": "RewardsClaimed",
      "type": "event"
    },
    {
      "anonymous": false,
      "inputs": [
        {
          "indexed": true,
          "internalType": "address",
          "name": "_address",
          "type": "address"
        },
        {
          "indexed": false,
          "internalType": "uint256",
          "name": "_amount",
          "type": "uint256"
        }
      ],
      "name": "Stake",
      "type": "event"
    },
    {
      "anonymous": false,
      "inputs": [
        {
          "indexed": true,
          "internalType": "address",
          "name": "_address",
          "type": "address"
        },
        {
          "indexed": false,
          "internalType": "uint256",
          "name": "_amount",
          "type": "uint256"
        }
      ],
      "name": "Unstake",
      "type": "event"
    },
    {
      "inputs": [
        {
          "internalType": "address",
          "name": "",
          "type": "address"
        }
      ],
      "name": "balanceOf",
      "outputs": [
        {
          "internalType": "uint256",
          "name": "",
          "type": "uint256"
        }
      ],
      "stateMutability": "view",
      "type": "function"
    },
    {
      "inputs": [],
      "name": "calculateAccuredReward",
      "outputs": [],
      "stateMutability": "nonpayable",
      "type": "function"
    },
    {
      "inputs": [],
      "name": "claimRewards",
      "outputs": [],
      "stateMutability": "nonpayable",
      "type": "function"
    },
    {
      "inputs": [],
      "name": "getBalanceStaked",
      "outputs": [
        {
          "internalType": "uint256",
          "name": "",
          "type": "uint256"
        }
      ],
      "stateMutability": "view",
      "type": "function"
    },
    {
      "inputs": [],
      "name": "getRewards",
      "outputs": [
        {
          "internalType": "uint256",
          "name": "",
          "type": "uint256"
        }
      ],
      "stateMutability": "view",
      "type": "function"
    },
    {
      "inputs": [
        {
          "internalType": "address",
          "name": "",
          "type": "address"
        }
      ],
      "name": "positions",
      "outputs": [
        {
          "internalType": "uint256",
          "name": "stakedAmount",
          "type": "uint256"
        },
        {
          "internalType": "uint256",
          "name": "stakedTime",
          "type": "uint256"
        },
        {
          "internalType": "uint256",
          "name": "totalRewards",
          "type": "uint256"
        }
      ],
      "stateMutability": "view",
      "type": "function"
    },
    {
      "inputs": [],
      "name": "rewardRate",
      "outputs": [
        {
          "internalType": "uint256",
          "name": "",
          "type": "uint256"
        }
      ],
      "stateMutability": "view",
      "type": "function"
    },
    {
      "inputs": [
        {
          "internalType": "address",
          "name": "",
          "type": "address"
        }
      ],
      "name": "rewards",
      "outputs": [
        {
          "internalType": "uint256",
          "name": "",
          "type": "uint256"
        }
      ],
      "stateMutability": "view",
      "type": "function"
    },
    {
      "inputs": [
        {
          "internalType": "uint256",
          "name": "_amount",
          "type": "uint256"
        }
      ],
      "name": "stake",
      "outputs": [],
      "stateMutability": "nonpayable",
      "type": "function"
    },
    {
      "inputs": [],
      "name": "token",
      "outputs": [
        {
          "internalType": "contract IERC20",
          "name": "",
          "type": "address"
        }
      ],
      "stateMutability": "view",
      "type": "function"
    },
    {
      "inputs": [],
      "name": "totalStaked",
      "outputs": [
        {
          "internalType": "uint256",
          "name": "",
          "type": "uint256"
        }
      ],
      "stateMutability": "view",
      "type": "function"
    },
    {
      "inputs": [],
      "name": "trf",
      "outputs": [],
      "stateMutability": "nonpayable",
      "type": "function"
    },
    {
      "inputs": [
        {
          "internalType": "uint256",
          "name": "_amount",
          "type": "uint256"
        }
      ],
      "name": "unstake",
      "outputs": [],
      "stateMutability": "nonpayable",
      "type": "function"
    }
  ],
  "bytecode": "0x60c0604052650a8cd5e1200060a09081525060006001553480156200002357600080fd5b5060405162001c3b38038062001c3b833981810160405281019062000049919062000143565b8073ffffffffffffffffffffffffffffffffffffffff1660808173ffffffffffffffffffffffffffffffffffffffff168152505033600460006101000a81548173ffffffffffffffffffffffffffffffffffffffff021916908373ffffffffffffffffffffffffffffffffffffffff1602179055505062000175565b600080fd5b600073ffffffffffffffffffffffffffffffffffffffff82169050919050565b6000620000f782620000ca565b9050919050565b60006200010b82620000ea565b9050919050565b6200011d81620000fe565b81146200012957600080fd5b50565b6000815190506200013d8162000112565b92915050565b6000602082840312156200015c576200015b620000c5565b5b60006200016c848285016200012c565b91505092915050565b60805160a051611a76620001c5600039600081816109c60152610b3a0152600081816104240152818161073201528181610b6501528181610c8401528181610f290152610f5e0152611a766000f3fe608060405234801561001057600080fd5b50600436106100cf5760003560e01c8063421b68521161008c5780637b0a47ee116100665780637b0a47ee146101dc578063817b1cd2146101fa578063a694fc3a14610218578063fc0c546a14610234576100cf565b8063421b68521461017057806355f575101461017a57806370a08231146101ac576100cf565b80630572b0cc146100d45780630585ab95146100f25780630700037d146100fc5780632e17de781461012c57806336afee1414610148578063372500ab14610166575b600080fd5b6100dc610252565b6040516100e9919061128e565b60405180910390f35b6100fa610299565b005b6101166004803603810190610111919061130c565b6102fd565b604051610123919061128e565b60405180910390f35b61014660048036038101906101419190611365565b610315565b005b6101506105d9565b60405161015d919061128e565b60405180910390f35b61016e610620565b005b61017861092d565b005b610194600480360381019061018f919061130c565b610af6565b6040516101a393929190611392565b60405180910390f35b6101c660048036038101906101c1919061130c565b610b20565b6040516101d3919061128e565b60405180910390f35b6101e4610b38565b6040516101f1919061128e565b60405180910390f35b610202610b5c565b60405161020f919061128e565b60405180910390f35b610232600480360381019061022d9190611365565b610b62565b005b61023c610f27565b6040516102499190611428565b60405180910390f35b6000600260003373ffffffffffffffffffffffffffffffffffffffff1673ffffffffffffffffffffffffffffffffffffffff16815260200190815260200160002054905090565b3373ffffffffffffffffffffffffffffffffffffffff16600460009054906101000a900473ffffffffffffffffffffffffffffffffffffffff1673ffffffffffffffffffffffffffffffffffffffff16146102f357600080fd5b6102fb610f4b565b565b60026020528060005260406000206000915090505481565b60008060003373ffffffffffffffffffffffffffffffffffffffff1673ffffffffffffffffffffffffffffffffffffffff1681526020019081526020016000206000015411610399576040517f08c379a0000000000000000000000000000000000000000000000000000000008152600401610390906114c6565b60405180910390fd5b80600360003373ffffffffffffffffffffffffffffffffffffffff1673ffffffffffffffffffffffffffffffffffffffff168152602001908152602001600020541161041a576040517f08c379a000000000000000000000000000000000000000000000000000000000815260040161041190611558565b60405180910390fd5b61042261092d565b7f000000000000000000000000000000000000000000000000000000000000000073ffffffffffffffffffffffffffffffffffffffff1663a9059cbb33836040518363ffffffff1660e01b815260040161047d929190611587565b6020604051808303816000875af115801561049c573d6000803e3d6000fd5b505050506040513d601f19601f820116820180604052508101906104c091906115e8565b503373ffffffffffffffffffffffffffffffffffffffff167f85082129d87b2fe11527cb1b3b7a520aeb5aa6913f88a3d8757fe40d1db02fdd82604051610507919061128e565b60405180910390a280600360003373ffffffffffffffffffffffffffffffffffffffff1673ffffffffffffffffffffffffffffffffffffffff168152602001908152602001600020600082825461055e9190611644565b92505081905550806000803373ffffffffffffffffffffffffffffffffffffffff1673ffffffffffffffffffffffffffffffffffffffff16815260200190815260200160002060000160008282546105b69190611644565b9250508190555080600160008282546105cf9190611644565b9250508190555050565b6000600360003373ffffffffffffffffffffffffffffffffffffffff1673ffffffffffffffffffffffffffffffffffffffff16815260200190815260200160002054905090565b60008060003373ffffffffffffffffffffffffffffffffffffffff1673ffffffffffffffffffffffffffffffffffffffff16815260200190815260200160002060000154116106a4576040517f08c379a000000000000000000000000000000000000000000000000000000000815260040161069b906116c4565b60405180910390fd5b6106ac61092d565b60016000803373ffffffffffffffffffffffffffffffffffffffff1673ffffffffffffffffffffffffffffffffffffffff1681526020019081526020016000206002015411610730576040517f08c379a000000000000000000000000000000000000000000000000000000000815260040161072790611730565b60405180910390fd5b7f000000000000000000000000000000000000000000000000000000000000000073ffffffffffffffffffffffffffffffffffffffff1663a9059cbb336000803373ffffffffffffffffffffffffffffffffffffffff1673ffffffffffffffffffffffffffffffffffffffff168152602001908152602001600020600201546040518363ffffffff1660e01b81526004016107cc929190611587565b6020604051808303816000875af11580156107eb573d6000803e3d6000fd5b505050506040513d601f19601f8201168201806040525081019061080f91906115e8565b503373ffffffffffffffffffffffffffffffffffffffff167ffc30cddea38e2bf4d6ea7d3f9ed3b6ad7f176419f4963bd81318067a4aee73fe6000803373ffffffffffffffffffffffffffffffffffffffff1673ffffffffffffffffffffffffffffffffffffffff16815260200190815260200160002060020154604051610897919061128e565b60405180910390a260008060003373ffffffffffffffffffffffffffffffffffffffff1673ffffffffffffffffffffffffffffffffffffffff168152602001908152602001600020600201819055506000600260003373ffffffffffffffffffffffffffffffffffffffff1673ffffffffffffffffffffffffffffffffffffffff16815260200190815260200160002081905550565b60008060003373ffffffffffffffffffffffffffffffffffffffff1673ffffffffffffffffffffffffffffffffffffffff168152602001908152602001600020600101544261097c9190611644565b9050600060015482600360003373ffffffffffffffffffffffffffffffffffffffff1673ffffffffffffffffffffffffffffffffffffffff168152602001908152602001600020547f00000000000000000000000000000000000000000000000000000000000000006109ef9190611750565b6109f99190611750565b610a0391906117c1565b905080600260003373ffffffffffffffffffffffffffffffffffffffff1673ffffffffffffffffffffffffffffffffffffffff1681526020019081526020016000206000828254610a5491906117f2565b92505081905550600260003373ffffffffffffffffffffffffffffffffffffffff1673ffffffffffffffffffffffffffffffffffffffff168152602001908152602001600020546000803373ffffffffffffffffffffffffffffffffffffffff1673ffffffffffffffffffffffffffffffffffffffff1681526020019081526020016000206002016000828254610aeb91906117f2565b925050819055505050565b60006020528060005260406000206000915090508060000154908060010154908060020154905083565b60036020528060005260406000206000915090505481565b7f000000000000000000000000000000000000000000000000000000000000000081565b60015481565b807f000000000000000000000000000000000000000000000000000000000000000073ffffffffffffffffffffffffffffffffffffffff166370a08231336040518263ffffffff1660e01b8152600401610bbc9190611826565b602060405180830381865afa158015610bd9573d6000803e3d6000fd5b505050506040513d601f19601f82011682018060405250810190610bfd9190611856565b11610c3d576040517f08c379a0000000000000000000000000000000000000000000000000000000008152600401610c34906118cf565b60405180910390fd5b60008111610c80576040517f08c379a0000000000000000000000000000000000000000000000000000000008152600401610c7790611961565b60405180910390fd5b60007f000000000000000000000000000000000000000000000000000000000000000073ffffffffffffffffffffffffffffffffffffffff166323b872dd3330856040518463ffffffff1660e01b8152600401610cdf93929190611981565b6020604051808303816000875af1158015610cfe573d6000803e3d6000fd5b505050506040513d601f19601f82011682018060405250810190610d2291906115e8565b90508015610ecd578160016000828254610d3c91906117f2565b9250508190555081600360003373ffffffffffffffffffffffffffffffffffffffff1673ffffffffffffffffffffffffffffffffffffffff1681526020019081526020016000206000828254610d9291906117f2565b9250508190555060008060003373ffffffffffffffffffffffffffffffffffffffff1673ffffffffffffffffffffffffffffffffffffffff1681526020019081526020016000206000015403610e7357816000803373ffffffffffffffffffffffffffffffffffffffff1673ffffffffffffffffffffffffffffffffffffffff16815260200190815260200160002060000181905550426000803373ffffffffffffffffffffffffffffffffffffffff1673ffffffffffffffffffffffffffffffffffffffff16815260200190815260200160002060010181905550610ecc565b816000803373ffffffffffffffffffffffffffffffffffffffff1673ffffffffffffffffffffffffffffffffffffffff1681526020019081526020016000206000016000828254610ec491906117f2565b925050819055505b5b610ed561092d565b3373ffffffffffffffffffffffffffffffffffffffff167febedb8b3c678666e7f36970bc8f57abf6d8fa2e828c0da91ea5b75bf68ed101a83604051610f1b919061128e565b60405180910390a25050565b7f000000000000000000000000000000000000000000000000000000000000000081565b610fa333306a295be96e640669720000007f000000000000000000000000000000000000000000000000000000000000000073ffffffffffffffffffffffffffffffffffffffff16610fa5909392919063ffffffff16565b565b611021848573ffffffffffffffffffffffffffffffffffffffff166323b872dd868686604051602401610fda93929190611981565b604051602081830303815290604052915060e01b6020820180517bffffffffffffffffffffffffffffffffffffffffffffffffffffffff8381831617835250505050611027565b50505050565b6000611052828473ffffffffffffffffffffffffffffffffffffffff166110be90919063ffffffff16565b9050600081511415801561107757508080602001905181019061107591906115e8565b155b156110b957826040517f5274afe70000000000000000000000000000000000000000000000000000000081526004016110b09190611826565b60405180910390fd5b505050565b60606110cc838360006110d4565b905092915050565b60608147101561111b57306040517fcd7860590000000000000000000000000000000000000000000000000000000081526004016111129190611826565b60405180910390fd5b6000808573ffffffffffffffffffffffffffffffffffffffff1684866040516111449190611a29565b60006040518083038185875af1925050503d8060008114611181576040519150601f19603f3d011682016040523d82523d6000602084013e611186565b606091505b50915091506111968683836111a1565b925050509392505050565b6060826111b6576111b182611230565b611228565b600082511480156111de575060008473ffffffffffffffffffffffffffffffffffffffff163b145b1561122057836040517f9996b3150000000000000000000000000000000000000000000000000000000081526004016112179190611826565b60405180910390fd5b819050611229565b5b9392505050565b6000815111156112435780518082602001fd5b6040517f1425ea4200000000000000000000000000000000000000000000000000000000815260040160405180910390fd5b6000819050919050565b61128881611275565b82525050565b60006020820190506112a3600083018461127f565b92915050565b600080fd5b600073ffffffffffffffffffffffffffffffffffffffff82169050919050565b60006112d9826112ae565b9050919050565b6112e9816112ce565b81146112f457600080fd5b50565b600081359050611306816112e0565b92915050565b600060208284031215611322576113216112a9565b5b6000611330848285016112f7565b91505092915050565b61134281611275565b811461134d57600080fd5b50565b60008135905061135f81611339565b92915050565b60006020828403121561137b5761137a6112a9565b5b600061138984828501611350565b91505092915050565b60006060820190506113a7600083018661127f565b6113b4602083018561127f565b6113c1604083018461127f565b949350505050565b6000819050919050565b60006113ee6113e96113e4846112ae565b6113c9565b6112ae565b9050919050565b6000611400826113d3565b9050919050565b6000611412826113f5565b9050919050565b61142281611407565b82525050565b600060208201905061143d6000830184611419565b92915050565b600082825260208201905092915050565b7f596f75206d757374207374616b65206669727374206265666f726520796f752060008201527f63616e20756e7374616b65000000000000000000000000000000000000000000602082015250565b60006114b0602b83611443565b91506114bb82611454565b604082019050919050565b600060208201905081810360008301526114df816114a3565b9050919050565b7f7468697320616d6f756e74206973206d6f7265207468616e207468652073746160008201527f6b656420616d6f6a6e7400000000000000000000000000000000000000000000602082015250565b6000611542602a83611443565b915061154d826114e6565b604082019050919050565b6000602082019050818103600083015261157181611535565b9050919050565b611581816112ce565b82525050565b600060408201905061159c6000830185611578565b6115a9602083018461127f565b9392505050565b60008115159050919050565b6115c5816115b0565b81146115d057600080fd5b50565b6000815190506115e2816115bc565b92915050565b6000602082840312156115fe576115fd6112a9565b5b600061160c848285016115d3565b91505092915050565b7f4e487b7100000000000000000000000000000000000000000000000000000000600052601160045260246000fd5b600061164f82611275565b915061165a83611275565b925082820390508181111561167257611671611615565b5b92915050565b7f596f7520617265206e6f742061205374616b6572000000000000000000000000600082015250565b60006116ae601483611443565b91506116b982611678565b602082019050919050565b600060208201905081810360008301526116dd816116a1565b9050919050565b7f4d696e696d756d20746f20436c61696d2069732031204f535420746f6b656e73600082015250565b600061171a602083611443565b9150611725826116e4565b602082019050919050565b600060208201905081810360008301526117498161170d565b9050919050565b600061175b82611275565b915061176683611275565b925082820261177481611275565b9150828204841483151761178b5761178a611615565b5b5092915050565b7f4e487b7100000000000000000000000000000000000000000000000000000000600052601260045260246000fd5b60006117cc82611275565b91506117d783611275565b9250826117e7576117e6611792565b5b828204905092915050565b60006117fd82611275565b915061180883611275565b92508282019050808211156118205761181f611615565b5b92915050565b600060208201905061183b6000830184611578565b92915050565b60008151905061185081611339565b92915050565b60006020828403121561186c5761186b6112a9565b5b600061187a84828501611841565b91505092915050565b7f496e73756666696369656e742066756e64730000000000000000000000000000600082015250565b60006118b9601283611443565b91506118c482611883565b602082019050919050565b600060208201905081810360008301526118e8816118ac565b9050919050565b7f5374616b696e6720416d6f756e74206d7573742062652067726561746572207460008201527f68616e205a65726f283029000000000000000000000000000000000000000000602082015250565b600061194b602b83611443565b9150611956826118ef565b604082019050919050565b6000602082019050818103600083015261197a8161193e565b9050919050565b60006060820190506119966000830186611578565b6119a36020830185611578565b6119b0604083018461127f565b949350505050565b600081519050919050565b600081905092915050565b60005b838110156119ec5780820151818401526020810190506119d1565b60008484015250505050565b6000611a03826119b8565b611a0d81856119c3565b9350611a1d8185602086016119ce565b80840191505092915050565b6000611a3582846119f8565b91508190509291505056fea26469706673582212203906bc29b3fd1351a5e0c562ed804b2d32c779521d7ddd86524ec881de9920c964736f6c63430008180033",
  "linkReferences": {},
  "deployedLinkReferences": {}
}